:020000040000FA
:10700000E8360020197200009D9D00009F9D000041
:107010000000000000000000000000000000000070
:10702000000000000000000000000000A19D000022
:107030000000000000000000A39D0000A59D0000CE
:10704000AD9D0000AF9D0000B19D0000BB9D000004
:10705000C59D0000C79D0000C99D0000CB9D00009C
:10706000CD9D0000CF9D0000D19D0000D39D00006C
:10707000D59D0000DD9D0000DF9D0000E19D00002A
:10708000E39D0000E59D0000E79D0000E99D0000F4
:10709000EB9D0000ED9D00002B720000EF9D0000B5
:1070A000F19D0000F39D000000F002F800F06CF884
:1070B0000CA030C8083824182D18A246671EAB460D
:1070C00054465D46AC4201D100F05EF87E460F3E6C
:1070D0000FCCB6460126334200D0FB1AA246AB467F
:1070E00033431847C4020100E402010000230024D6
:1070F00000250026103A01D378C1FBD8520700D3EF
:1071000030C100D50B60704710B5662902D10FF071
:1071100069FD10BD652902D10FF064FD10BD642921
:1071200002D10BF00FFE10BD752902D10BF00AFE43
:1071300010BD782902D10BF03BFE10BD632902D1AE
:107140000DF030FB10BD732902D10DF033FB10BDE3
:10715000002010BD1FB5C046C046009801990DF033
:1071600050F80CF07DF80DF02BF804000020002101
:107170000FF0BAFB401C6060002000210FF0CAFB3A
:10718000E0601FBD10B510BD0EF0C6FC1146FFF744
:10719000E1FF03F0CDFA0EF0DEFC03B4FFF7F2FFDF
:1071A00003BC02F03EFE000030B40C490C684A6893
:1071B00023681068C0181060241D121D8C4207D26D
:1071C0008A4208D20C604A6030BC400040087047D8
:1071D0000C00DC3CF6E70A00DC3AF3E7802A0020EA
:1071E00070B505460C46164602E00FCC0FC5103EA2
:1071F000102EFAD2082E02D303CC03C5083E042E6B
:1072000007D301CC01C5361F03E021782970641C27
:107210006D1C761EF9D270BD0748804707480047AD
:10722000FEE7FEE7FEE7FEE7FEE7FEE70448054966
:10723000054A064B7047000063720000A970000009
:10724000E82A0020E8360020E82E0020E82E002062
:107250003648006870473548406870473448006ACF
:10726000704710B53348816B334A1161C16B3048A8
:1072700041600021016241698907CA0F01219140E3
:107280004269D207D20F9140CAB24169406989046C
:10729000890E51438002294A800E50430CF0DDF9DB
:1072A0002249086010BDF8B5254F0126204D012860
:1072B0000FD000202862214C104621460CF0CDF959
:1072C000C0B2012808D8EE616F6101210A46134659
:1072D00019E02E620C46EFE70021E961FF21013140
:1072E0008006800A0843686168698007C00F86408D
:1072F0006869C007C00F86406869F2B28004810ED9
:1073000068698002830E2046084C514360605843F0
:107310000CF0A3F92060F8BD30B4064B9C6B064D11
:107320002C61DB6B024C636030BCBCE700000020CA
:107330000010004180FD03000012004100127A009D
:107340000001020041210906002801D0032000E0CD
:1073500001200860704741210906486070470120FC
:10736000412109068860704741200006C06880B24C
:10737000704741210906002800D0022008617047AB
:107380004120000600690006000E00D00120704771
:10739000012041210906086170470020D2E700B5AD
:1073A0000120FFF7CFFF0020FFF7E3FF00BD000043
:1073B0003F4A3F4B01218032984201D11160704712
:1073C0003B4B2033984201D111627047394A394B07
:1073D00080329842F2D0374B20339842F4D0704735
:1073E000334A334B0121C9438032984201D11160A5
:1073F00070472F4B2033984201D1116270472D4ABC
:107400002C4B80329842F2D02A4B20339842F4D051
:107410007047816880229143816070478168802233
:107420009143816000210160202282608161704768
:10743000826880239A4382600A68026082684B688F
:107440009B0113438A6892001A43CB6809695B0069
:1074500013431943EF221140816070472022012914
:10746000816802D09143816070471143FBE701219D
:10747000C16070474069C0B2704780688006C00F25
:1074800070478168802211438160704700687047AF
:10749000016070474068704780687047816070473E
:1074A0000069704740697047806970478161704723
:1074B000001000400020004070B510240021016041
:1074C0004160DC4A4261426281624263212252068B
:1074D000904202D1D84BD94A07E04322120690428B
:1074E0000CD1D54BD54A4033403200206026850070
:1074F0005E515151401CA042F9D370BD1122920639
:10750000904204D1CC4BCD4A80338032EDE7CA4B58
:10751000CA4AC033C0320524E7E7F0B52122002370
:1075200010255206904201D1C34A10E043221206B0
:10753000904202D1C04A403209E0112292069042A4
:1075400002D1BD4A803202E0BB4AC0320525012487
:1075500026460F689E403740B74243D10F79012F2E
:107560000DD046614E79B6070DD59C001659B60868
:10757000B6001651165902273E4316510BE0076913
:1075800037430761EEE79E009759BF08BF00975148
:107590009759274397514C79640704D59C00165995
:1075A00004273E4303E09C0016590427BE431651AE
:1075B0004C79A40604D59C00165920273E4303E0CD
:1075C0009C0016592027BE4316514C79640604D5F9
:1075D0009C00165940273E4303E09C001659402763
:1075E000BE4316515B1CAB42B1D3F0BD9149016063
:1075F000002101716221417170470246126800202A
:107600000A4200D0012070470068C0B270470246AD
:10761000526800200A4200D001207047406880B2C2
:1076200070470A06920D012312189B02D2181160AE
:107630000A0A920010185A0080180160704710B5AD
:107640000B069B0D0124CA431B18A4021B191A60C8
:10765000090A8900081861004018026010BD30B5A1
:107660000B069B0D1C1801239B02E41823680D0ACE
:10767000AD002D180120C0022D182868012A04D061
:107680008B4323608843286030BD0B43236008434D
:10769000F9E741607047836A0B438362012A03D094
:1076A000426A0A4342627047026A0A4302627047B2
:1076B000604A8262012901D04262704702627047CB
:1076C000012A03D0426B0A4342637047026B0A43AC
:1076D00002637047574A012901D042637047026331
:1076E00070475449816370470246926B00200A42FA
:1076F00000D001207047F0B50126504D00233446DC
:107700009C400C4210D0002812D0012813D002282F
:1077100014D04A4C9F0080343C19276CBF08BF002E
:107720002764276C174327645B1C102BE7DBF0BD35
:107730009C00641906E09C006419EEE73F4C9F0032
:1077400080343C192768BF08BF00276027681743AB
:107750002760E9E77CB504461E460D466846FFF7FC
:1077600045FF68460095027169462046FFF7D5FE41
:1077700021204006844201D1002004E0432000067D
:10778000844205D1012032462946FFF7B4FF7CBD73
:1077900011208006844201D10220F4E70320F2E7A1
:1077A0007CB5044616460D466846FFF71FFF0020CD
:1077B0006946009508712046FFF7AFFE206A28430E
:1077C0002062A06A2843A062324629462046FFF77D
:1077D00077FF21204006844206D10020012229465D
:1077E000FFF789FF072009E043200006844208D103
:1077F000012002462946FFF77EFF082000F013F81B
:107800007CBD11208006844206D102200122294637
:10781000FFF771FF0920F1E7032001222946FFF756
:107820006AFF0A20EAE7C106C90E01208840044920
:1078300008607047FFFF0000003000410020004159
:1078400000E100E0E1214902016060218180002126
:10785000C1800322018112024281818170477047F9
:10786000F8B50446006B0E46400840002063FFF761
:10787000F5FC8B4F0125002846D03D61FFF7E8FC61
:107880007A69294691400BF0E8FE0746306800010E
:107890000CF06CFC009038460CF068FC00990CF081
:1078A0004BFB07460CF01EFC00900CF05FFC3946C9
:1078B0000FF024F906210CF05DFC0CF013FB002204
:1078C000784B0CF0F7F80CF057F90146009860621D
:1078D000A162E06AEE218843B188F28811433289BF
:1078E0000243E06A11430843E062206B6E49B289AB
:1078F0000840718911430143206B08432063206BCA
:10790000284320630020F8BD0220386178692946A9
:1079100081406648B7E710B5C36A10242343C362A9
:107920004907890E5207520F1143416310BDC16AC6
:1079300010229143C162704701607047006880B2B5
:107940007047C16A01221143C16270470246526802
:1079500000200A4200D00120704741607047024673
:10796000926900200A4200D001207047002A03D00B
:10797000826B0A4382637047426C0A4342647047D9
:107980000246126C00200A4200D001207047426C6F
:107990000A4342647047704710B504464448016B7F
:1079A00002290AD0006B032807D0FFF751FC2146BB
:1079B0000BF053FE3F49086110BDFFF74CFCF6E7A2
:1079C00010B5FFF7E9FF3B49886803228008800073
:1079D00010438860002010BD36494A68D207FCD1A8
:1079E000086070473348006880B27047314A0146EA
:1079F000526800200A4200D0012070472D4A002919
:107A0000916801D0014300E0814391607047294AA9
:107A10000029916801D0014300E0814391607047E3
:107A2000244A0146D26800200A4200D00120704753
:107A30002049CA680243CA60704701608269120720
:107A4000FCD40846704730B50B4605461C78002C20
:107A500003D021462846FFF7F0FF5B1C002CF5D130
:107A600030BD8169C906FCD40068C0B2704700B55A
:107A70000346FFF7B1FF184600BD10B503461C785A
:107A8000002C02D02046FFF7A7FF5B1C002CF6D18C
:107A900010BD084841688907FCD50068C0B270472E
:107AA000401100410000E03FFE3CFFFF00127A0061
:107AB000001000410060004000787047017070477E
:107AC00030B5002405E00D19ADB2455D1555641CB7
:107AD000A4B29C42F7D330BD70B5002405E00E1966
:107AE000155DB6B28555641CA4B29C42F7D370BD37
:107AF00070B514000FD01A4A83049E18F26840072C
:107B000095B2184AC00A10430A4623462946FFF791
:107B1000E3FF2819F06070BD70B514000FD0104A53
:107B200083049E18B26A400795B20F4AC00A1043F8
:107B30000A4623462946FFF7C3FF2819B06270BDE5
:107B400010B500290BD0064A83049B189A6A400797
:107B5000054CC00A5118204389B20818986210BD1C
:107B600000020146000002460000034670B50446CC
:107B7000082802D90020C04370BDF948A604301877
:107B800005461021FFF79AFF2846FFF795FF0028CA
:107B9000FAD1F3481F2118303018FFF78FFFF14852
:107BA00001218288A1408A438280EF4A002061003F
:107BB0005052EC49891D0855012070BDF8B51C468E
:107BC00016460F460546082802D90020C043F8BDD6
:107BD000012F06D0022F04D0042F02D00420C0436E
:107BE000F8BD6007810FE148FAD1002C0CD0012FBD
:107BF00002D0022F08D103E021210C42F0D003E093
:107C0000A10601D52106EBD52846FFF7AFFF2109D4
:107C10000901D3483943AF0410383818FFF74EFF35
:107C2000002E0AD1CF48D24A0688711C89B2018041
:107C3000914202D1032189030180C948F0303818EC
:107C40004661C748012138180646FFF737FF30461E
:107C5000FFF732FF0028FAD1C248E107C90F428876
:107C6000A9401143418001218288A9408A43828032
:107C7000BD4A002069005052BA49891D4855B8488C
:107C800020303C182046FFF717FF0028FAD068B2D2
:107C9000F8BD70B50646082802D90020C04370BD63
:107CA000AF48B40410382018FFF706FF0007000F94
:107CB000012802D00420C04370BDA94820302018FC
:107CC0000546FFF7F9FE132802D00220C04370BD1D
:107CD000A348022120180446FFF7F0FE2046FFF7D4
:107CE000EBFE0028FAD104E02046FFF7E5FE00286D
:107CF00006D02846FFF7E0FE1428F5D1012070BD1C
:107D00003046FFF733FF0320C04370BDF7B50D4683
:107D10000746082802D90020C043FEBD9048BC0495
:107D200010382018FFF7C8FE0007000F012802D006
:107D30000420C043FEBD8A48203020180646FFF7C5
:107D4000BBFE132802D00220C043FEBD29786A780A
:107D500008028018AA7800028018EA7800028018C9
:107D6000421C32D0002830D00298002830D0814800
:107D70002018FFF7A3FE7F486978401E2018FFF700
:107D80009DFE7C48A978801E2018FFF797FE794851
:107D9000E978C01E2018FFF791FE7649029827392E
:107DA000611808626E48042120180546FFF786FE18
:107DB0002846FFF781FE0028FAD16A490120498848
:107DC000B84008421CD00020FEBD0B20C043FEBDC1
:107DD0000A20C043FEBD2846FFF76EFE000708D507
:107DE0005F48082118302018FFF768FE0C20C043B8
:107DF000FEBD3046FFF760FE002804D1001FFEBD27
:107E00005748103025183046FFF756FE1728E2D1A4
:107E10000120FEBD70B50646082802D90020C043E7
:107E200070BD4F48B50410382818FFF745FE00070D
:107E3000000F012802D00420C04370BD484808212B
:107E400028180446FFF73AFE2046FFF735FE0028C3
:107E5000FAD1444901208A88B04082438A80498807
:107E600008420CD0002070BD2046FFF725FE000719
:107E70000BD53046FFF77AFE0C20C04370BD384862
:107E800010302C18364820302D182846FFF714FEE5
:107E90000028E9D1012070BDF7B582B002981446E0
:107EA000082803D90020C04305B0F0BD86042C4843
:107EB00010383018FFF700FE0007000F012802D02D
:107EC0000420C043F0E7002C0CD0254820303018A7
:107ED0000190FFF7F1FD172807D01C2805D00620D8
:107EE000C043E1E70D20C043DEE7029801251D4FA6
:107EF0008540B888054211D0194810303018FFF776
:107F0000DBFDC006C00EC10621D515481021183072
:107F10003018FFF7D3FDB888A843B8801548D9308A
:107F200030180090FFF7C8FD8006000C844200D98D
:107F300004460098406887B20198FFF7BDFD1728F6
:107F40001AD01C2818D00298FFF710FEC7E70007C8
:107F500018D50298FFF70AFE0C20C043A4E70000E2
:107F60001000014608000020E0030020FAFFFFFF98
:107F7000F0FF000027010146FE484088054203D07B
:107F8000BC4201D900208FE7BC42D2D822460399D7
:107F90000298FFF7ADFDF848202130180646FFF79C
:107FA0008DFD3046FFF788FD0028FAD1F148818821
:107FB0000D438580204677E7F7B582B002981446D6
:107FC000082802D90020C0436EE78704EA48103829
:107FD0003818FFF771FD0007000F012802D00420B8
:107FE000C04361E7002C19D0E4483818FFF764FD5E
:107FF0008006000CA04200D20446DF48203038182A
:108000000090DE4820383E18706A85B20098FFF76D
:1080100053FD172815D01C2803D00CE00D20C043B9
:1080200042E7002D1AD13046FFF746FD7168800205
:1080300089B2884205D10298FFF798FD0620C04317
:1080400032E7029901208840CA494988084203D092
:10805000002D03D1002027E7002DD5D0A54200D266
:108060002C46224603990298FFF756FDC24840214C
:1080700038180546FFF722FD2846FFF71DFD0028AA
:10808000FAD1204610E7FFB583B003981E46154687
:10809000082803D90020C04307B0F0BD8404B648C7
:1080A00010382018FFF708FD0007000F022804D041
:1080B000042802D00420C043EEE7002D1DD0307804
:1080C000717800024018B17800024018F17800027F
:1080D000C84202D10B20C043DEE70C9800280FD025
:1080E000A548203020180746FFF7E6FC42280AD0B2
:1080F000222808D00620C043CEE70D20C043CBE79E
:108100000A20C043C8E79D483178F9382018FFF7A6
:10811000D5FC9A487178FA382018FFF7CFFC9748B9
:10812000B178FB382018FFF7C9FC9448F178FC3887
:108130002018FFF7C3FC90490C98F03161180862D1
:108140008E48203820180190FFF7B6FC8006000CFE
:10815000854200D905460399012088400090019886
:10816000406886B23846FFF7A7FC002808D081494E
:1081700000984988084206D0B54204D900208BE710
:108180000320C04388E7B542E9D82A4604990398FA
:10819000FFF7AEFC7848202120180746FFF78EFC39
:1081A0007548183026183846FFF786FC0028FAD1A3
:1081B0007148103024182046FFF77EFCC006C00E20
:1081C000C10605D530461021FFF778FC284663E745
:1081D0000007F0D530460821FFF770FC0C20C043A3
:1081E0005AE7FFB5002485B00646082802D9601E6C
:1081F00009B0F0BD6048B50410382818FFF75CFCE2
:1082000004900007000F022804D0042802D00420A4
:10821000C043EDE70798002805D059487700C05BB8
:10822000002803D022E00D20C043E1E75348203866
:10823000281803905048203028180125B540029096
:108240000398406A84B20298FFF736FC002806D0F3
:1082500048484088054207D0002C03D006E00320A0
:10826000C043C5E70020C3E7002CE9D04148002106
:10827000801D81550498B20441073F48490F1518E5
:1082800002291FD0042957D021463046FFF758FC59
:108290003B48C45328464021FFF710FC2846FFF70F
:1082A0000BFC0028FAD13648C15B091B0904090CF4
:1082B000C15305D02F480122801D815D1143815596
:1082C000204695E72E4CE05B002865D108226946E0
:1082D0003046FFF721FC28464021FFF7EFFB2846F8
:1082E000FFF7EAFB0028FAD1684601780898017088
:1082F000684641780898417068468178089881708E
:108300006846C1780898C17068460E99007908805F
:1083100001026846407908180E99088068468079FD
:1083200001026846C0790818E05332E02246304620
:108330000699FFF7F1FBADE7114CE05B00282BD16C
:10834000022269463046FFF7E7FB28464021FFF747
:10835000B5FB2846FFF7B0FB0028FAD16846007845
:10836000010268464078081880B20649E053884206
:108370000FD909E008000020100001462002014644
:10838000E0030020EA0500003046FFF7EFFB9F48BE
:108390002EE79F4980208855E45B07988442C5D921
:1083A0000446C3E7F8B514460646082802D900205B
:1083B000C043F8BD964F9748BF1FB20410187D8880
:1083C0000B000DF089FC0805131719212A333C41D5
:1083D00021780120B040012902D0002903D033E0E8
:1083E0002843788029E085437D8026E0F540E80732
:1083F000C00F19E0884801E0874820301018FFF7C7
:108400005BFB8002208018E020781F281CD8C10662
:108410008048C90E001D10180DE07E48001F10187E
:10842000FFF74AFBC006C00E207006E021781F2926
:108430000AD8C906C90EFFF741FB0120F8BDFFF7B6
:108440003BFBC006C00E20700920C043F8BDF8B544
:108450001546082802D90020C043F8BD84046E4B9D
:108460006C4A6C48803BDC3224380427E618A2189A
:108470002018FF430B000DF02FFC084F0509104298
:108480001316444F63482978E43002E061482978A4
:10849000E0302018FFF712FB31E0288810612EE051
:1084A000288810622BE0FFF707FB0007000F012868
:1084B0002DD13046FFF700FB002802D00120C04339
:1084C000F8BD54482221143820180546FFF7F6FA63
:1084D0005048001F26180DE03046FFF7EDFA000760
:1084E00008D54C480821001D2018FFF7E7FA0C209A
:1084F000C043F8BD2846FFF7DFFA0028ECD1012081
:10850000F8BDFFF7D9FA0007000F012801D038465F
:10851000F8BD29783046BDE70920C043F8BDF8B55D
:1085200014460646082802D90020C043F8BDB50409
:108530003848384A384B2438DC32EF182818AA1843
:108540000B000DF0C9FB0D080D1215173060323EFF
:10855000404248546000FFF7AFFA0009000102E012
:108560002C48E43033E020703DE02A48E0302EE033
:10857000106920702848D9382818FFF79DFA207014
:108580002548DA382818FFF797FA60702248DB3858
:108590002818FFF791FAA0701F48DC382818FFF759
:1085A0008BFAE0701FE0106A1CE0FFF785FA000705
:1085B000000F012821D1184880382818FFF77CFACD
:1085C00010E078682080786A208012480C302818E3
:1085D000FFF772FAC7E7FFF76FFA012805D00F49D6
:1085E0007000085A20800120F8BD786AFAE7FFF78A
:1085F00063FA0007000F012802D00420C043F8BD31
:108600000348805DAFE70120C043F8BD17FCFFFFC2
:108610000E0000202400014600020146E003002075
:108620007047704770477047007870470170704717
:10863000002070477047FE4A002804D0002902D06D
:10864000D16090607047FB489060FB48D0607047F5
:10865000F74A002804D0002902D051611061704708
:10866000F6481061F6485061704710B5F04A13881B
:10867000DC05FDD5002804D0002902D0D16190612D
:1086800010BDF0489061F048D06110BD10B5E84AC7
:1086900013889C05FDD5002804D0002902D0D161A3
:1086A000906110BDE9489061E948D06110BD00209B
:1086B000C04370470020C043704710B5E548FFF73E
:1086C000FBF90446E3481030FFF7F6F90002001901
:1086D00080B210BD10B5C1B2040A09090901DD4814
:1086E000FFF7ECF9DB4821461030FFF7E7F910BD42
:1086F000D84810B5001FFFF7DFF90446D5480C3005
:10870000FFF7DAF90002001980B210BD10B5C1B24E
:10871000040AD04809090901001DFFF7CFF9CD4827
:1087200021460C30FFF7CAF910BDF0B593B0CA4826
:10873000FFF7C2F91190C848401EFFF7BDF9C64CBB
:108740001090A41E2046FFF7B7F9651E0F9028462B
:10875000FFF7B2F90E90A01DFFF7AEF90D90601D66
:10876000FFF7AAF90C90BC480830FFF7A5F90B9069
:10877000B948C01DFFF7A0F9B74E0A90B61D3046A4
:10878000FFF79AF90990E01DFFF796F90890B01DE0
:10879000FFF792F90790701DFFF78EF90690301DD4
:1087A000FFF78AF90590F01CFFF786F90490AA48B4
:1087B0001030FFF781F9A84F03900F373846FFF7C5
:1087C0007BF90290781EFFF777F90190F01DFFF713
:1087D00073F900908021A148FFF770F99F48FFF7D7
:1087E0006BF9A01C1199FFF769F9601C1099FFF74C
:1087F00065F920460F99FFF761F928460E99FFF7B2
:108800005DF9A01D0D99FFF759F9601D0C99FFF74F
:1088100055F9B01C0B99FFF751F9701C0A99FFF735
:108820004DF930460999FFF749F9E01D0899FFF71E
:1088300045F9B01D0799FFF741F9701D0699FFF73B
:108840003DF9301D0599FFF739F9F01C0499FFF740
:1088500035F9781C0399FFF731F938460299FFF78B
:108860002DF9781E0199FFF729F9F01D0099FFF7FE
:1088700025F913B0F0BDF8B50D4606460024FFF704
:1088800054FF002E14D00022B05C521C001952B2CA
:1088900044B2082AF8DB102C17DC714F0024A00426
:1088A000315DC019FFF70AF9641C64B2082CF6DBCD
:1088B000002D19D0002108462A5C401C511840B2F6
:1088C00049B20828F8DB102902DD0020C043F8BDBA
:1088D000634E00242036A004295D8019FFF7EEF8CE
:1088E000641C64B2082CF6DB0020F8BD70B50C46A1
:1088F0000246002108464D1E13000DF0EDF9090651
:10890000091511181C2E2E202E00FFF70EFF22E055
:10891000002C02D0214620460831FFF7ACFF70BD85
:108920002088FFF7F3FE16E0FFF7E2FE05E020885F
:10893000FFF7D0FE0FE0FFF7C0FE20800BE03C48C1
:1089400082782270C27862700279A2704279E270F5
:10895000807920716171002070BD284670BD10B50E
:1089600004463D484130FFF7A7F820703A483D30B3
:108970000068608010BD10B504460178364841306B
:10898000FFF79CF8344960883D31086010BD10B590
:108990003248FFF791F810BD70B50446C720044275
:1089A00002D00020C04370BD2C4D2846FFF784F84C
:1089B000204301462846FFF781F8002070BD10B51E
:1089C00004462548FFF778F820702348401EFFF73B
:1089D00073F860702048801EFFF76EF8A0701E4884
:1089E000C01EFFF769F8E0701B48001DFFF764F830
:1089F00020711948C01CFFF75FF8607116480830F5
:108A0000FFF75AF8A0731448C01DFFF755F8E0733C
:108A10001148801DFFF750F820740F48401DFFF7E4
:108A20004BF860740C480C30FFF746F8A07219E060
:108A300020000020218600002386000025860000FB
:108A400027860000298600002D8600003186000060
:108A500035860000042100460360004600230046DE
:108A6000000201465F480B30FFF726F8E0725D48D0
:108A70000A30FFF721F820735A480930FFF71CF835
:108A8000607358481030FFF717F8A07155480F3041
:108A9000FFF712F8E07153480E30FFF70DF820721F
:108AA00050480D30FFF708F860724F480178A17404
:108AB0004178E17481782175C07860754A48401E1C
:108AC0000078A07510BD10B5044601784548FEF742
:108AD000F5FF44486178401EFEF7F0FF4148A17859
:108AE000801EFEF7EBFF3F48E178C01EFEF7E6FF71
:108AF0003C482179001DFEF7E1FF3A486179C01C2E
:108B0000FEF7DCFF3748A17B0830FEF7D7FF35487A
:108B1000E17BC01DFEF7D2FF3248217C801DFEF7AD
:108B2000CDFF3048617C401DFEF7C8FF2D48A17A7B
:108B30000C30FEF7C3FF2B48E17A0B30FEF7BEFF87
:108B40002848217B0A30FEF7B9FF2648617B0930AF
:108B5000FEF7B4FF2348A1791030FEF7AFFF21489C
:108B6000E1790F30FEF7AAFF1E48217A0E30FEF79A
:108B7000A5FF1C48617A0D30FEF7A0FF1A48A17CC2
:108B80000170E17C4170217D8170617DC170164969
:108B9000A07D491E087010BD10B50C4603000DF0F5
:108BA0009BF80604080C1014181D0846FFF78BFFED
:108BB00012E00846FFF703FF0EE00878FFF7ECFE2F
:108BC00010BDFFF7E4FE207006E00846FFF7D3FE75
:108BD00002E00846FFF7C3FE002010BD0020C0439E
:108BE00010BD0000036000461900002070B5044667
:108BF000012080032061450029462046FEF711FD33
:108C0000012002F026F829462046FEF718FD012033
:108C100002F01FF870BDF1B500200126F6030446EE
:108C20007710450031460098FEF7FBFC012002F06A
:108C300010F831460098FEF702FD012002F009F815
:108C400039460098FEF7D9FC2843641C102CE8D361
:108C5000F8BD70B50446012080036061012001F079
:108C6000F8FF0125ED0329462046FEF7DAFC012036
:108C700001F0EFFF29462046FEF7E1FC012001F05C
:108C8000E8FF70BDF7B514462020001B8140012786
:108C9000BF030D467E0018E00098002D394602DA29
:108CA000FEF7BFFC01E0FEF7CAFC012001F0D1FF96
:108CB00031460098FEF7B5FC012001F0CAFF3146AD
:108CC0000098FEF7BCFC6D00641E002CE4D1FEBDD4
:108CD00070B50C46002105462022C943FFF7D2FF9C
:108CE000042206212846FFF7CDFF0522072128464A
:108CF000FFF7C8FF052221462846FFF7C3FF284695
:108D0000FFF7A7FF2846FFF786FF04462846FFF730
:108D10006DFF204670BD10B5432001210006FFF70E
:108D2000D7FF4007C00F10BD70B50C461646002196
:108D300005462022C943FFF7A5FF04220521284646
:108D4000FFF7A0FF052207212846FFF79BFF05221A
:108D500021462846FFF796FF022211462846FFF7D4
:108D600091FF102231462846FFF78CFF2846FFF777
:108D70003DFF70BD0122D202904203D02121C901E2
:108D800008400246002143200006CDE77CB514468A
:108D90000D462143009101216A4611716946FEF793
:108DA000BCFB012221461046FEF7A5FC0122294604
:108DB0001046FEF7A0FC7CBD10B5FE4CFE482178A5
:108DC000FEF77CFEFC486178401EFEF777FEFA480D
:108DD000A178801EFEF772FEF748E178C01EFEF70C
:108DE0006DFEF54808342178001FFEF767FEF24853
:108DF0006178401FFEF762FEEF48A178801FFEF702
:108E00005DFEED48E178C01FFEF758FEEA48241FDA
:108E100021780838FEF752FEE74861780938FEF7F6
:108E20004DFEE548A1780A38FEF748FEE248E178B1
:108E30000B38FEF743FE10BD10B5E04C80212046F4
:108E4000FEF73CFE2046FEF737FEFFF7B5FFD94C94
:108E5000D948353421781038FEF730FED64861788D
:108E60001138FEF72BFED448A1781238FEF726FE03
:108E7000D148E1781338FEF721FECF4821790C382C
:108E8000FEF71CFECC4861790D38FEF717FE10BDC9
:108E900010B5CA4C80212046FEF710FE2046FEF792
:108EA0000BFEC44CC448353421781038FEF706FE5A
:108EB000C14861781138FEF701FEBF48A178123829
:108EC000FEF7FCFDBC48E1781338FEF7F7FDBA4821
:108ED00021790C38FEF7F2FDB74861790D38FEF7BD
:108EE000EDFD10BDB34B10B5DB1FB54C5C62B54C4E
:108EF0009C62B54CDC62002800D05862002900D08A
:108F00009962002A00D0DA6210BD30B5A94B012069
:108F1000DB1F996B08704870062088700020C870AD
:108F20005A6B120E0A715A6B120C4A719A8E120AFF
:108F30008A719A8ECA71996B802208818A72C8726E
:108F4000996B1A46087348738873C8730874487419
:108F50008874C874087548758875C8750876487629
:108F60008876C8763C3214780C7754784C779478AD
:108F70008C77D478CC770C461579203425705279CB
:108F8000627006228C18521CD2B22077102AF9D3B4
:108F90009A6B002154182034491CC9B2207340290F
:108FA000F8D39A6B002154186034491CC9B220735D
:108FB0008029F8D3986B6321E030017382224273D9
:108FC00053228273C17330BDFEB5FFF79EFF79480F
:108FD0003522C01F836BF021CA540122F121CA54EB
:108FE000F221CA543D22F321CA540722F421CA5463
:108FF0000122F521CA5401463C310A78F621CA54AF
:1090000001463C314A78F721CA5402463C329478F2
:10901000F822D45402463C32D478F922D454024681
:109020003C321479FA22D45402463C325479FB2261
:10903000D4540C21FC22D1540027FD21CF541222FC
:1090400004463946423406E09E18E036521C491C5C
:10905000357392B289B2655C002DF5D1846B554BA6
:10906000A6183533DD78E0363573521C92B2A61857
:109070001D79E0363573521C92B2A5185B79E03544
:109080002B73521C92B2CB1C511A0919E0310B728E
:10909000816B37238C18E0342373521C92B28C18E6
:1090A000521C92B28D180623E03423730124E0355C
:1090B0002C73521C92B28D180324E035521C2C7371
:1090C00092B28C18E0342373521C92B28C180F2386
:1090D000E0342373521C92B28B183A24E0331C7391
:1090E000521C92B28B18E0333B24521C1C7392B278
:1090F000FF238C18E0342373521CFF2492B23934BE
:1091000004E08D18E035521C2F7392B2A242F8D3BE
:1091100069460B714B718B71CB7143210091892290
:10912000816B01AB92008078FEF7ADFFFEBDFEB50E
:10913000FFF7EBFE1F4C0020E41FE11D20560B46FD
:109140002933FF2703284AD0042848D068460771EE
:1091500047718771C771A26B3520F025A854012093
:10916000F125A8540320F225A8543D20F325A85446
:109170000720F425A8540120F525A8540D48F6250C
:1091800035300078A8540B48F72535304078A8547E
:109190000848F82535308078A8540648F925353038
:1091A000C078A8540348FA2535300079A8540148FE
:1091B00035300BE0470000201360004600230046D6
:1091C000B98D0000398E0000918E00004079FB259A
:1091D000A8546D46ED791020FF2D16D039E0A06B14
:1091E00000228272C2720A7802734A7842738A78C5
:1091F0008273CA78C2731A78684602715A784271CB
:109200009A788271DA78C271A5E73225FC208554FC
:109210000425FD2085540E78FE2086544E78FF20CC
:1092200086548878AE01B054C978701C81543621B8
:10923000401C8154401C85541978401C8154597835
:10924000401C81549978401C8154D978401C815429
:109250001C2013180C21E0331973401C1318002133
:10926000E0331973F94D401C05E01618E036401C38
:10927000337380B2491C6B5C002BF6D1A36BF34AAD
:109280001E18921FD578E0363573401C80B21E1828
:109290001579E0363573401C80B21D185279E035DF
:1092A0002A73401C82B2C81C511AC918E0310872D6
:1092B000A06B37218318E0331973521C91B2431805
:1092C0000822E0331A73491C89B243180122E033A3
:1092D0001A73491C89B243180322E0331A73491CDC
:1092E00089B243180622E0331A73491C89B2431825
:1092F0000F22E0331A73491C89B242183A23E03234
:109300001373491C89B242183B23E032491C137382
:1093100089B242181F23E0321373491C89B24218E4
:109320002123E0321373491C89B24218E0321773CB
:10933000491C0022FF2389B2393303E04518E03588
:109340002A73491C9942F9DB43200090892201AB22
:109350009200A078A16BFEF796FEFEBD1CB5FFF74C
:10936000D4FDBA4800214238806B35228172C17227
:10937000F0210A540122F1210A540422F2210A5454
:109380003D23F3210B540722F4210A540122F52135
:109390000A54AE49F622891F0B7813544B78F722F2
:1093A00013548B78F8221354CB78F92213540B7989
:1093B000FA2213544A79FB210A543222FC210A541E
:1093C0000422FD210A54A1493B390A78FE210A549E
:1093D0009E493B394A78FF210A549C493B398A7897
:1093E000FF2101310A5499493B39CA78FF210231E2
:1093F0000A543622491C0A540422491C0A5493492F
:10940000FF2212390B78053213544B78521C135437
:109410008B78521C1354CA78FF2108310A54FF225A
:10942000491C0A541D210023FF2239324418E0341C
:10943000491C23739142F9DBFF206946087148718A
:109440008871C87143200090804889224238816B1E
:1094500001AB92008078FEF716FE1CBD7FB57B4CF9
:109460007B4A423CA07881048918496A0A04120C9C
:1094700027D001A9009102ABA16BFEF7B2FE82B228
:109480006846808843283CD1A06B21463C31037F4D
:109490000D78AB4215D1457F4B789D4211D1837F2A
:1094A0008D78AB420DD1C37FCD78AB4209D1034655
:1094B00020331D780E79B54203D15B7849798B4210
:1094C00002D0002004B070BDF03000258118F039C2
:1094D00015E00278332A3ED008DC002A15D0012A94
:1094E00018D0032A1AD0062A06D125E0352A0ED034
:1094F000362A3FD0FF2A06D04278801C8018884246
:10950000E7D368B2DEE70846F9E7401CF7E785785D
:10951000C01CF4E74D4A8378333A2EE04B4A437837
:109520008678373A1670C6785670067996704679FE
:10953000801DD670C0180CE0444B427886782F3BD3
:109540001E70C6785E7006799E704679801DDE704A
:109550008018001FD3E78278A261C37812029A189C
:10956000A261037912029A18A261437912029A1831
:10957000A26109E0354A8378123A1370C3785370B8
:10958000037993704379D370801DB8E72F48002189
:109590004238C161052202624170704770B52B4CA0
:1095A0000125423C6157002622469057022917DACE
:1095B000E269216A914223D2012804D0022805D011
:1095C000042805D102E0FFF7FFFC01E0FFF7AFFD43
:1095D000E661E069401D20626078401C60700FE029
:1095E000012804D0022805D0042807D102E0267003
:1095F000002503E0FFF7E8FC01202070FFF7C6FF1D
:10960000284670BDF8B5134E3046FEF755FA0546AC
:1096100003213046FEF752FA0C4B0F483B3BDC1F50
:10962000009011220DA1A078FEF72DFD07462946D6
:109630003046FEF743FA0D371AD0FFF78FFEE06988
:10964000E169091A0229FBD30020F8BD820000203D
:109650000002014644600046881300004348454329
:109660004B5F49505F434F4E464C49435400000006
:109670000120EAE7F8B5B74C207806281ED0A0787C
:10968000B54980044018FEF717FA222805D00023B8
:1096900044220221A078FEF791FA0125FFF7DEFEB1
:1096A000C1B20022A256AB4800260127C01D1300FC
:1096B0000CF012FB05060D1C314C2F000520C4E7F1
:1096C000067046708670C670FFF77EFC5EE0022969
:1096D0001CD1A16B0A7C02704A7C42708A7C827029
:1096E000C97CC170FFF723FD02204BE005290BD197
:1096F000FFF788FF002801D0606A3FE0FFF746FFD0
:10970000E06A8047267004E006293DD0FFF746FF57
:109710000546284699E7A16904254A1CF9D0E26963
:1097200049089142F5D28B490278C91C0A704278E7
:109730004A7082788A70C078C870606B401C606321
:10974000FFF7F5FCFFF722FF04201BE004250529A5
:10975000DAD180496670C91C0A7803789A420BD125
:109760004A7843789A4207D18A7883789A4203D11B
:10977000C978C078814202D0A06A03258047FFF7EC
:1097800005FF03202070C4E7FFF700FF2770C0E744
:1097900010B5704CA078FEF7E9F90620207010BDD6
:1097A000F3B56E4F83B00646002538460095FEF7A8
:1097B00083F9684C3C342070781EFEF77DF96070A8
:1097C000B81EFEF779F9A070F81EFEF775F9E07083
:1097D000381DFEF771F92071F81CFEF76DF9607104
:1097E000014620786278E3781043A2781A43104348
:1097F0002279104308431FD1257008206070DC20B7
:10980000A070E5702571294665713846FEF756F956
:109810006178781EFEF752F9A178B81EFEF74EF96E
:10982000E178F81EFEF74AF92179381DFEF746F96E
:109830006179F81CFEF742F9464F4949BE70049819
:10984000B863E0786379421821798A1848409A18F9
:109850005840801878636846017840480C461030BC
:10986000FEF72CF968464078029001463B480F30DD
:10987000FEF724F9684680780190014637480E309B
:10988000FEF71CF96846C678344831460D30FEF7BD
:1098900015F9324821461030FEF710F92F48029989
:1098A0000F30FEF70BF92D4801990E30FEF706F93F
:1098B0002A4831460D30FEF701F928482146083084
:1098C000FEF7FCF825480299C01DFEF7F7F823487B
:1098D0000199801DFEF7F2F820483146401DFEF741
:1098E000EDF8FFF753FE3D7005B0F0BD1948C169B2
:1098F000491CC16170471749C91D0A7802704A782E
:1099000042708A788270C978C170704711490B31F2
:109910000A7802704A7842708A788270C978C17079
:1099200070470C490F310A7802704A7842708A7881
:109930008270C978C1707047064913310A78027085
:109940004A7842708A788270C978C170704701483D
:1099500080697047400000203000014603600046E7
:1099600078563412017840780902401880B2704766
:109970000A0A02704170801C7047F0B584460020CE
:10998000054606460C78491C002D00D1401C2706D0
:10999000BF0F032F0AD1002D00D1401CA406097867
:1099A000A40C6444091901250C78491C002C19D019
:1099B0001B1B5B1E1BB2002B02DA0020C043F0BD54
:1099C000002D05D1001903E00F781770491C521CB7
:1099D0002746641EA4B2002FF6D12E241470521C08
:1099E000761CCFE7002E02D12E211170521C0021CF
:1099F0001170F0BD10B586B00C4618236A46FFF70B
:109A0000BCFF411C03D02018001D06B010BD002073
:109A1000FBE770B586B015460C46064618236A4625
:109A2000FFF7ABFF411C46D024182046FFF79AFFF2
:109A30000A3403000CF050F9103C09133C3C132984
:109A40001313133C3C13183C1F3C2078287060789B
:109A50006870A078A870E078E870241D28E01823CA
:109A60006A460BE0241823E02078641C2018017853
:109A7000401C44181CE018236A46A41C21463046AA
:109A8000FFF77BFF411C16D0ECE718236A462146FE
:109A90003046FFF772FF411C0DD0241818236A4688
:109AA00021463046FFF769FF411C04D024181434C6
:109AB000204606B070BD0020FBE7F7B50446002045
:109AC000208060800D460846FFF74CFF2080A81CD0
:109AD000FFF748FF02040121002A00DAA1704204C6
:109AE000120FE270420500D52171820500D5617127
:109AF000C20500D5A171020600D5E1710007000F73
:109B00002072281DFFF72EFF6081A81DFFF72AFF96
:109B1000A08128460830FFF725FFE08128460A305B
:109B2000FFF720FF29460C3100262082771E06E031
:109B30002846FFF75FFF010014D0761CB6B260899B
:109B4000B042F5D8002607E02846029AFFF761FFE9
:109B5000010007D0761CB6B2A089B042F4D800202C
:109B6000E18903E03846FEBD401C80B28142FBD84B
:109B70000020218A01E0401C80B28142FBD8207A7B
:109B8000002801D00020FEBD0120FEBDFFB55D4ACA
:109B90000D46518887B00346491C89B20998518007
:109BA000FFF7E6FED902FF31013189B2FFF7E0FE8F
:109BB0000121FFF7DDFE0021FFF7DAFE0021FFF7AC
:109BC000D7FE0021FFF7D4FE04462946684609F077
:109BD000A3FB6E46304609F0C5FB80B206902E21ED
:109BE000304609F04DFB070002D0B81B85B200E0FB
:109BF000069D2570641C002D12D02A463146204651
:109C000009F098FC6419002F07D006987619401BBC
:109C1000401E80B2761C0690E1E700202070641C94
:109C200001212046FFF7A4FE0121FFF7A1FE0999BB
:109C3000401A00B20BB0F0BD3248816802290BD344
:109C4000002282600178022902D30270501E704700
:109C5000491C01700020704701207047294A50704C
:109C60002948516050807047F7B5264C0D460023B7
:109C700088B01A4602216078FDF7A0FFFF26013662
:109C80003346294600206268FFF780FF352500959E
:109C900082B2089B60786168FEF7F5F91B4F607827
:109CA0008004C019406A05042D0C15D0B54200D9B6
:109CB000354607A8009006AB2A4660786168FEF733
:109CC00090FA0A9A01A86168FFF7F7FE05466078E6
:109CD000FDF74CFF2846ADE7FFF7AEFF002801DA9D
:109CE0000020A7E70028DAD1352000902A46089BFB
:109CF00060786168FEF7C7F9D1E702488168491CBE
:109D0000816070478C000020221100000002014693
:109D1000F0B587B003F05EF804466D46A81DFFF766
:109D2000EAFD03A802300690FFF7F0FD02A802301A
:109D30000746FFF7F6FD04A802300646FFF7FCFDD4
:109D4000214606221731684603F02CF920460422EA
:109D5000A91D1D3003F02AF920460422213006995E
:109D600003F024F9204604223946253003F01EF979
:109D7000204604223146653003F018F96034E0785B
:109D8000002801D0022000E00120694688750020EB
:109D9000FEF702FF07B0F0BD704700007047704744
:109DA0007047704710B500F05CFF10BD70477047FA
:109DB00010B5104804F0A4FE10BD10B50E4804F014
:109DC0009FFE10BD704770477047704770477047DF
:109DD0007047704710B504F012FE10BD7047704711
:109DE00070477047704770477047704770477047BB
:109DF0007047704700C0004000D0004010B5C0B2AE
:109E0000FDF735FE10BD10B5FDF743FEFDF72FFE43
:109E100010BD0020C043704710B5C0B2FDF727FE4B
:109E200010BDFEE710B5FDF7BFF9052109F01FFCD5
:109E3000084615300AF092F9FD4CE062FDF7B4F9DE
:109E40000A2109F014FC08463C300AF087F9206327
:109E5000FDF7AAF9142109F00AFC7D20C0000818BA
:109E6000608010BD70B5F24C154600280ED0012858
:109E700018D0022809D12070002900D0E163002DFC
:109E800003D004F01AFE4019206470BD0020207039
:109E9000002D03D004F011FE40192064002000F0D2
:109EA000D6FF70BD01202070002000F0DCFF70BDE7
:109EB00070B504F002FEDE4C05462078012818D06B
:109EC000206C002809D0854207D900202064E06377
:109ED00001202070002000F0C6FF2078022808D161
:109EE000616BE06B4018A84203D2002000F0C7FF6E
:109EF000656370BDF7B5002516460F462C46002A4F
:109F000023D0CCA1104608F09AFA00280BD0C9A1A2
:109F1000304608F094FAC068082804D1C5A130463C
:109F200008F08DFA4569C6A1304608F088FA002885
:109F30000BD0C3A1304608F082FAC068082804D1CB
:109F4000BFA1304608F07BFA4469B948816800989F
:109F500009F026FB002811D1BCA1384609F020FBEE
:109F600000280DD0BAA1384609F01AFB00280BD002
:109F7000B8A1384609F014FB002809D00020FEBD26
:109F800000212246084606E000221146012002E098
:109F9000224629460220FFF765FFB0A0FEBD3EB570
:109FA00002F018FF6421095C002906D0AD49097848
:109FB000012906D0ACA008F033FEAFA008F030FEB7
:109FC0003EBD014621314A7C097C12020A4301460A
:109FD00020318B7B4C7B0094019302920B7BCA7ADD
:109FE0004931A6A008F01CFEE7E7FEB502F0F2FE3C
:109FF00004460025AA490420FFF730FE20466030C1
:10A00000427969460A7082794A70C27906468A7036
:10A01000007AC870032001F083FC20462B3069349D
:10A02000019021466846019AFFF71EFE0746012867
:10A030000BD06D1CEDB2022D07D804F0BEF9F078FC
:10A040000028EED0FFF716FBEBE7012001F068FCDB
:10A050003846FEBD10B502F0BDFE6030C078002865
:10A0600006D090480078012803D08FA008F0D8FDD2
:10A0700010BDFFF76CFC014690A008F0D1FD10BDAB
:10A0800070B5002486490320FFF78AFB9649954A5C
:10A090000846FEF727FF032001F042FCFFF7EAFA2B
:10A0A0000546042807D0002D01D1641CE4B2032C1E
:10A0B00006D9FFF76DFB012001F032FC68B270BDDC
:10A0C00004F07BF9EAE7F0B58FB002F083FE0446B6
:10A0D000382286496846FDF783F8611D84A008F0A0
:10A0E0009FFD26462036707A87498000095887A050
:10A0F00008F096FD8BA008F093FD204660300E908E
:10A10000C078012823D08DA18EA008F089FD96A0EB
:10A1100008F086FD27462337787B3A7B01021143FE
:10A1200096A008F07DFD9C499CA008F079FD9A4915
:10A13000A3A0491C08F074FDAAA008F071FD2546F3
:10A140004035287E002804D02246583202E0ABA1D8
:10A15000DAE7AFA2002801D0AFA100E0B0A1B3A020
:10A1600008F05EFDB5A008F05BFD0E988078012830
:10A1700011D0ABA1BAA2C2A008F052FDC3A008F052
:10A180004FFDCBA008F04CFD787C3A7C01021143D6
:10A1900003D0CDA003E0A0A1ECE7A1A158A008F056
:10A1A0003FFDCDA008F03CFD20462130417D007DE3
:10A1B0000902014301D0CEA001E099A150A008F00E
:10A1C0002FFDCFA008F02CFD0023D3A2D2A1D4A054
:10A1D00008F026FD6879D94980000958D8A008F010
:10A1E0001FFDA879694680000958DBA008F018FD1A
:10A1F000E879DC49095CDCA008F012FD287ADB492B
:10A2000080000958DAA008F00BFD687AD949095C8A
:10A21000D9A008F005FD6979D948002907D001685F
:10A22000D8A008F0FDFC0223BBA2BBA1B4E1C9E1A8
:10A230009C000020696E74657276616C00000000FD
:10A240006475726174696F6E000000006F6E0000CB
:10A250006F666600626C696E6B0000007375636305
:10A26000657373007A010020202320444E5320465A
:10A2700061696C65640D0A000D0A0000202320440A
:10A280004E533A202573203D3E2025642E25642E12
:10A2900025642E2564203A2025640D0A0000000064
:10A2A000F0030020C4010020202320444843502014
:10A2B0004661696C65640D0A00000000202320449B
:10A2C000484350204950204C65617365642074698F
:10A2D0006D65203A202575207365636F6E64730D7C
:10A2E0000A000000999D0000119D0000F46B010020
:10A2F000202D20446576696365206E616D653A2086
:10A3000025730D0A00000000B4010020202D204418
:10A310006576696365206D6F64653A2025730D0A63
:10A3200000000000202D204E6574776F726B207343
:10A33000657474696E67733A200D0A005374617412
:10A3400069630000092D204F627461696E696E6750
:10A350002049502073657474696E67733A205B25D9
:10A36000735D0D0A00000000092D205443502F5545
:10A37000445020706F7274730D0A00000920202071
:10A380002B20533245206461746120706F72743ADF
:10A39000205B25645D0D0A0051C3000009202020C8
:10A3A0002B205443502F5544502073657474696EAC
:10A3B0006720706F72743A205B25645D0D0A00009F
:10A3C000092020202B204669726D77617265207507
:10A3D000706461746520706F72743A205B25645DEF
:10A3E0000D0A0000202D20536561726368204944E6
:10A3F00020636F64653A200D0A0000004175746F98
:10A400006D61746963202D204448435000000000B2
:10A410004E6F6E6500000000456E61626C65640001
:10A4200044697361626C656400000000092D202599
:10A43000733A205B25735D0D0A000000202D204536
:10A44000746865726E657420636F6E6E656374699F
:10A450006F6E2070617373776F72643A200D0A001B
:10A460002854435020736572766572202F206D69E1
:10A47000786564206D6F6465206F6E6C79290000CB
:10A48000092D2025732025730D0A0000202D20435F
:10A490006F6E6E656374696F6E2074696D6572208E
:10A4A00073657474696E67733A200D0A00000000CA
:10A4B000092D20496E616374697669747920746925
:10A4C0006D65723A200000005B25645D202873658D
:10A4D00063290D0A00000000092D205265636F6E8C
:10A4E0006E65637420696E74657276616C3A2000E3
:10A4F0005B25645D20286D736563290D0A000000EB
:10A50000202D2053657269616C2073657474696EC7
:10A5100067733A200D0A00005541525400000000B4
:10A52000092D204461746120257320706F72743A84
:10A5300020205B257325645D0D0A00007003002058
:10A54000092020202B20554152542049463A205BB7
:10A5500025735D0D0A000000092020202B202564B2
:10A560002D0000005003002025642D00540300201E
:10A5700025732D00600300202564202F200000009B
:10A5800064030020466C6F7720636F6E74726F6C8B
:10A590003A2025730D0A00009FA008F041FBA5A3F7
:10A5A000A6A2A8A1ABA008F03BFBAFA008F038FB27
:10A5B000B6A008F035FB787D3A7D0102114305D045
:10A5C000B54806E0A97A8900415829E6B249B3485E
:10A5D000D03908F025FBB2A008F022FB717E0029DB
:10A5E00001D0B2A002E0AC49AC48D03908F018FB69
:10A5F000B2A008F015FBB07F01281ED0A649A748DD
:10A60000D03908F00DFBB0A008F00AFB8034E07EE2
:10A61000012815D0A049D039B5A008F001FBE37F8F
:10A62000A27F617FB4A008F0FBFABCA008F0F8FAA2
:10A63000E87A002807D0C3A206E0B17EC2A0E0E716
:10A640009549D839E8E7C5A2C7A1C9A008F0E8FA3A
:10A65000287B002801D0CDA200E0CDA2D0A1D2A0BD
:10A6600008F0DEFAD7A008F0DBFAE14C207805F01C
:10A670000DFAE04D80002F58207805F0F8F9DE4EF5
:10A68000800032583B46DDA1DEA008F0C9FA6078B0
:10A6900005F0FCF980002F58607805F0E8F980009B
:10A6A00032583B46DFA1E1A008F0BAFAA07805F0E5
:10A6B000EDF980002F58A07805F0D9F980003258C4
:10A6C0003B46E2A1E3A008F0ABFAE07805F0DEF942
:10A6D00080002D58E07805F0CAF9800032582B46EA
:10A6E000E4A1E6A008F09CFAECA1A6A008F098FA74
:10A6F0000FB0F0BD38B502F06DFB04464CA008F079
:10A700008FFAE6A19FA008F08BFAF1A008F088FA72
:10A71000F3A008F085FAFCA00090A37D627D217D66
:10A72000FBA008F07DFADDA196A008F079FA38BD0B
:10A730001FB502F04FFB044600F09BFAFDA103C9D0
:10A7400001910090FBA103C903910290FCF780FDE9
:10A75000FA4908F082FFFA49086008202870F94891
:10A7600068802846FEF707F902A96846FEF783F8D5
:10A7700000F029FB02F0E6FBF34802F005FE02F0D0
:10A78000F0FC04F0D3FA05F0D4F825464035687B98
:10A79000002803D0FFF7AEFFFFF795FC2646603692
:10A7A000F0780127002803D0FFF76AFC042830D096
:10A7B00002F0F7FC687B002803D002F054FCFFF79E
:10A7C00049FC2034607A012808D03079002805D06F
:10A7D000FFF70BFC002801D0DC480770687B0028DD
:10A7E00001D0FFF7DCFBD84844384168443006F01C
:10A7F0007DF9D74806F07BFD06F031FBD548D64CF5
:10A80000077020780027002804D0002002F0C9F843
:10A810001DE2A3E1A5E10000092D204465627567F2
:10A8200020257320706F72743A205B257325645D58
:10A830000D0A000028666978656429004E4F4E4570
:10A84000000000003131353230302D382D4E2D31A1
:10A8500000000000092020202B202573202F202518
:10A86000732025730D0A0000202D20536572696145
:10A870006C2064617461207061636B696E67206F26
:10A880007074696F6E733A0D0A000000092D205430
:10A89000696D653A20000000F0A4000000A30000EC
:10A8A000092D2053697A653A200000005B25645D1C
:10A8B00020286279746573290D0A0000092D204350
:10A8C0006861723A20000000202D20536572696192
:10A8D0006C20636F6D6D616E64206D6F64652073B5
:10A8E000777469636820636F64653A0D0A0000003D
:10A8F000092D2025730D0A00092D205B252E3258C5
:10A900005D5B252E32585D5B252E32585D20284830
:10A910006578206F6E6C79290D0A0000202D204883
:10A920006172647761726520696E666F726D6174C1
:10A93000696F6E3A205374617475732070696E7319
:10A940000D0A0000445452005B252E32585D202829
:10A95000686578206F6E6C79290D0A00504859207F
:10A960006C696E6B0000000050415F3130000000E8
:10A97000092D2053746174757320313A205B25735F
:10A980005D202D2025730D0A000000004453520065
:10A9900054435020636F6E6E656374696F6E000080
:10A9A00050415F3031000000092D205374617475EF
:10A9B0007320323A205B25735D202D2025730D0A0C
:10A9C00000000000202D20486172647761726520CC
:10A9D000696E666F726D6174696F6E3A205573654A
:10A9E0007220492F4F2070696E730D0A000000001D
:10A9F000A8030020B4030020AC03002050435F31C3
:10AA000033000000092D2055736572494F20413AEB
:10AA1000205B25735D202D202573202F2025730DAD
:10AA20000A00000050435F3132000000092D20551C
:10AA3000736572494F20423A205B25735D202D20BB
:10AA40002573202F2025730D0A00000050435F302E
:10AA500039000000092D2055736572494F20433A93
:10AA6000205B25735D202D202573202F2025730D5D
:10AA70000A00000050435F3038000000092D2055C7
:10AA8000736572494F20443A205B25735D202D2069
:10AA90002573202F2025730D0A0000003D3D3D3D0C
:10AAA0003D3D3D3D3D3D3D3D3D3D3D3D3D3D3D3DD6
:10AAB0003D3D3D3D3D3D3D3D3D3D3D3D3D3D3D3DC6
:10AAC0003D3D3D3D3D3D3D3D3D3D3D3D3D3D000030
:10AAD0002057495A3735305352200D0A00000000E4
:10AAE000203E3E2057495A6E657420536572696155
:10AAF0006C20746F2045746865726E6574204465BF
:10AB0000766963650D0A00004D5154540000000041
:10AB1000203E3E204669726D7761726520766572CF
:10AB200073696F6E3A2025642E25642E25642025D6
:10AB3000730D0A0004020202020202001027000044
:10AB400000200046C4090000E00000207A01002037
:10AB5000F59E000068010020E800002057480770BB
:10AB600028E603F02AFC002001F05AFFF0780028C4
:10AB700001D0FEF77FFD06F09CF9FFF799F903F08D
:10AB800099FF4F4C2062616A884251D3FFF74AF91E
:10AB9000A06A41004118012006F0E7FAA06A4100CE
:10ABA00042180121E06806F0FBFAA06A4100421851
:10ABB0000121206906F0F4FAA06A4100421801213F
:10ABC000606906F0EDFAA06A410042180121A0690F
:10ABD00006F0E6FAA06A410042180121E06906F099
:10ABE000DFFAA06A410042180121A06806F0D8FAF5
:10ABF000E16AE06806F049FB206B09F04DFA014676
:10AC0000206906F016FB6188606906F012FB2DA131
:10AC1000A06906F0E1FA03F050FF2D4908F01DFD90
:10AC20000146E06906F005FBA16A206A40186062EF
:10AC300028480178002900D00770274C2078002888
:10AC40008FD0687B002802D024A007F0E9FF27708E
:10AC500087E701B51A4800998163816B0029FCD10F
:10AC600008BD1748816B002902D0816B491E8163A2
:10AC7000704710B500F0D2F8204A01209110FCF77F
:10AC80004BFB03F099FE04F08AF8FCF7E1FA7D2112
:10AC9000C90008F0E2FC1A49401E88420CD8194944
:10ACA000486119480722C3691B021B0A4C0423434D
:10ACB000C361002088610A6110BD0000C40100204A
:10ACC0009C00002057495A3735305352000000008D
:10ACD00060EA0000FA00002040030020203E2055DA
:10ACE0004152542052782052696E67206275666620
:10ACF00065722046756C6C0D0A000000006CDC0269
:10AD0000FFFFFF0000E000E004ED00E0FEB50446B8
:10AD1000022818D2654E6500705B009001206946DC
:10AD200008716348A700C059FCF7F7FB6048715BE6
:10AD3000401F025D801E005DFCF7DDFC5C48715B1E
:10AD4000C059FCF76EFCFEBD70B5012311249D03B4
:10AD5000A406002229462046FCF7FCFC656170BD74
:10AD600010B501232120002259024006FCF7F2FC15
:10AD700010BDF8B5002421254E4E6D06022128464F
:10AD8000FCF73BFC002801D00120F8BDFCF760FA7D
:10AD9000314608F062FC8100401800E0401E00903F
:10ADA0000028FBD1641CE4B2052CE7D3F8BD10B534
:10ADB000212464060123002202212046FCF7CAFC5C
:10ADC0000220606110BD10B5012003F085FE3A48F5
:10ADD0006121016341610122920343205100000679
:10ADE000FDF7D4FF002003F077FEFFF7E0FFFFF749
:10ADF000C0FF002810D000202D4908390870FFF747
:10AE0000AFFF04F061FFFFF79FFF0020FFF77EFF19
:10AE10000120FFF77BFF10BD0120EDE7274902204D
:10AE2000086327498860704710B501212120490235
:10AE30004006FCF7E2FB10BD70470020704710B5DC
:10AE40000121112089038006FCF7D7FB10BD10B546
:10AE5000022807D2154A4100515A154A800010585D
:10AE6000FCF7EDFB10BD10B5022807D20F4A4100D8
:10AE7000515A0F4A80001058FCF7D3FB10BD02282E
:10AE800008D20B49820089584A68084B4000185A7A
:10AE900042404A60704710B5044A4100515A044A82
:10AEA00080001058FCF7B3FB10BD00002C6C0100B3
:10AEB000F000002010270000403000414011004108
:10AEC0000020004110B50078FCF7A4FF10BD70B55C
:10AED00004460E460088AF49800415464018FCF72A
:10AEE000EBFD172801D0002070BDAAB220783146B2
:10AEF000FCF7D2FF70BD70B504460E460088A54928
:10AF0000800415464018FCF7D7FD17280DD120689E
:10AF1000A14A81048918496A0904090C05D0AAB21A
:10AF2000C0B23146FDF748F870BD002070BD086022
:10AF30009A4848609A4888609A48C8607047FEB549
:10AF4000154606460422984808F0F4FA964C9749AC
:10AF5000A41F65803046FFF7EAFF0121954BC90227
:10AF60009348019000917D2202911846D200591811
:10AF70005C3800F0CDF901202070FEBD10B58A4C80
:10AF8000A41FA088002809D08B49884204D2401C05
:10AF90000840A08002D00CE00020A080012008F032
:10AFA00049F9FCF701F9854908F061FB8448081864
:10AFB000A08080B210BD70B515460E460446FFF75E
:10AFC000DDFF0246207800230121FCF7F7FD207801
:10AFD0002A463146FCF79AFE70BD734810B5801FB3
:10AFE0004288811D7148FFF7E6FF40B210BD6E48F0
:10AFF000801FC0687047F0B56B4C0126A41F2078F5
:10B0000085B0002877D0002768460297674D878172
:10B010002888604980044018FCF74EFD172823D08B
:10B0200004DC00286DD013281DD104E0182868D056
:10B030001C28F9D161E0E068624A216989188842D8
:10B040007FD3287862885849FCF760FEE068206169
:10B0500055486288C17801920091837842780178DE
:10B0600059A007F0DDFD6CE028884A4980041039BA
:10B070004018FCF721FDC00735D0287802AA04212A
:10B08000FDF74DFA287803AA0521FDF748FA68462E
:10B090008189C07A009001916846837A427A017A68
:10B0A00058A007F0BDFD4049424867700E315C383A
:10B0B00000F0DBFA44B2002C09D021465BA007F077
:10B0C000AFFD3A48FFF7FEFE204605B0F0BD5FA099
:10B0D00007F0A6FD28882F49800408394018022669
:10B0E0000121FCF7EBFC30480E30018B31485C3815
:10B0F00000F08BFA25E022E003E02C48FFF7E2FEA7
:10B100001FE0FFF73BFF074658A007F089FD3946CF
:10B1100057A007F085FD287800233A460121FCF767
:10B120004DFD296888420CD1E068206160780028D4
:10B1300007D158A007F074FD0120607001E00126DE
:10B14000F6433046C1E71848801FC168491CC160FA
:10B15000704715494068891FC968401AC00F704779
:10B16000114A921FD2685118416070477D22D20067
:10B1700051430D4A921FD2688918416070470A49AD
:10B180004068891FC968401A00D500207047002117
:10B19000416070473000014600020146F7AE0000F2
:10B1A000CFAE0000C5AE0000020100204C1C002004
:10B1B0004C1800204C140020FFFF00001027000056
:10B1C000C8AF0000B80B0000203E204D5154543A47
:10B1D0002054727920746F20636F6E6E65637420E3
:10B1E000746F204D5154542042726F6B6572202D44
:10B1F0002025642E25642E25642E2564203A2025E2
:10B20000640D0A00203E204D5154543A20436F6E85
:10B210006E6563746564202D2025642E25642E25BB
:10B22000642E2564203A2025640D0A00203E204D1E
:10B230005154543A20436F6E6E65637420466169C1
:10B240006C65643A2025640D0A0D0A00203E204DED
:10B250005154543A20436F6E6E656374696F6E206B
:10B260005375636365737366756C0D0A0D0A000090
:10B27000203E204D5154543A20436C69656E742031
:10B28000736F7572636520706F7274203D20256442
:10B290000D0A0000203E204D5154543A2054435092
:10B2A00020536F636B6F70656E0D0A000260416022
:10B2B0007047FE4A0168914201D1012100E0491C1A
:10B2C000016008467047F7B50E46054600240CE0BD
:10B2D0000298FFF754FF0346286932460119286D8A
:10B2E0008768B847002807DB2418B44204DA0298BC
:10B2F000FFF72FFF0028EBD0B44206D12846543088
:10B30000A969FFF733FF0020FEBD0020C043FEBD4A
:10B31000F8B5079F069D002401652146E600361812
:10B32000641C7162052CF9DB476185600361426032
:10B33000089AC26001620177C1645430FFF727FFA9
:10B34000F8BDF7B5012582B000240E460C60641CE0
:10B35000042C13DC02980122006D69464768049BA7
:10B36000B84701280AD16846007832684106490E7C
:10B3700069435118ED0131600006E8D4204605B05C
:10B38000F0BDFEB5044600200025019000900F4658
:10B39000ED430846FFF7F3FE0346206D61694668FA
:10B3A0000122B047012824D13846FFF7E8FE0246C3
:10B3B00069462046FFF7C5FF60690099401C04F00C
:10B3C000E1FF461C009800280CDD3846FFF7D7FE49
:10B3D00003466069009A8119206D4668B04700995C
:10B3E000884206D1606969460078087101980006B4
:10B3F000050F2846FEBD10B58A6849688B181DE008
:10B4000014782F2C0AD02B290BD0232913D0A1423A
:10B4100019D12B2905D023290DD00DE02F2912D1C8
:10B420000AE0511C01E0911C521C994204D2097897
:10B430002F29F8D100E05A1E401C521C0178002927
:10B4400001D09A42DCD39A4202D10806000E01D004
:10B45000002010BD012010BDF7B50024E44382B0E8
:10B4600006460025E8008719796A002915D0039857
:10B4700005F055F8002805D1786A0399FFF7BBFF5E
:10B4800000280AD0B86A002807D0049903980091D0
:10B490000190B96A6846884700246D1C052DE1DBE0
:10B4A000601C0AD1F06C002807D004990398009121
:10B4B0000190F16C68468847002420465FE77CB520
:10B4C000044600258069ED43002809D02046543009
:10B4D000FFF73FFE00281BD0207F002802D017E096
:10B4E000002515E06846FFF752FE7D21C900684639
:10B4F000FFF736FEA168206904F0CFFE011E07DDCC
:10B500006A462046FFF7DFFE050001D101202077C3
:10B5100028467CBDF0B58FB00F460646FFF731FFD9
:10B5200084B2A01E00214D1E03000AF0D5FB0C675B
:10B530000767456767676767676766677169F06888
:10B5400004900AA8009008AA05A807AB02920391EC
:10B550000193421C014606AB801C04F0A9FE0128A1
:10B560004FD105AA0AA93046FFF776FF6846007D4D
:10B57000002843D0012802D0022808D012E06846F3
:10B58000008B009000230422B168306906E0684611
:10B59000008B009000230522B168306905F0D0F8D7
:10B5A000011E01DC2F462DE03A463046FFF78BFEA8
:10B5B0000746401C26D01AE0F068009009AA0DA9A1
:10B5C0000EA8736904F0B8FE0128EBD16846808CA0
:10B5D000009000230622B168306905F0B1F8011E21
:10B5E000E0DD3A463046FFF76EFE0700DAD130461E
:10B5F000FFF765FF002F04D004E031773046FFF7F6
:10B600005EFF274638460FB0F0BD7CB506460D46B6
:10B6100000246846FFF7BBFD29466846FFF7A0FDFA
:10B6200005E069463046FFF775FF401C06D06846C6
:10B63000FFF78FFD0028F4D020467CBD0024E443B2
:10B64000FAE7F8B5002416460D460746E4433046AF
:10B65000FFF77FFD002806D131463846FFF75AFF35
:10B660000446A842F3D12046F8BDF0B500279BB0B0
:10B670000E460446FF433D4658220D4902A8FBF7FB
:10B68000AFFD18A8FFF783FD18A86168FFF768FDF4
:10B69000206A002836D1002E00D102AE318B204620
:10B6A0005430A161FFF762FD324603E0FFFF000066
:10B6B000306C0100A168206904F0FCFC011E21DD52
:10B6C00018AA2046FFF7FFFD05001BD118AA02218A
:10B6D0002046FFF7B6FF02280CD1FF216846017013
:10B6E00000210171694601A8E368626904F082FDE6
:10B6F000012801D03D4605E068460578002D01D1BE
:10B700000120206228461BB0F0BDFFB58FB0044673
:10B7100000200027FF43079008900E463D46069103
:10B7200009A8FFF734FD09A86168FFF719FD206A31
:10B7300000281ED02046FFF7BCFD83B211AA06A93F
:10B7400001200292019100900022A168206905F079
:10B7500074F8011E0DDD09AA2046FFF7B4FD0500AF
:10B7600007D109AA09212046FFF76BFF092803D05A
:10B770003D46284613B0F0BD00200B970C90E168C1
:10B780006069019100900BAB0CAA01210DA805F096
:10B79000C0F8012802D10B9D802DEAD00020C10005
:10B7A0000919496A002903D0401C0528F7DBE0E7A6
:10B7B000C00000194662129900258162D9E770B570
:10B7C00088B0044600200026F643059006903546D2
:10B7D000049102A8FFF7DBFC02A86168FFF7C0FC38
:10B7E000206A00281CD02046FFF763FD83B204A91D
:10B7F0000120019100900022A168206905F0FDF868
:10B80000011E0DDD02AA2046FFF75DFD050007D1F0
:10B8100002AA0B212046FFF714FF0B2803D0354660
:10B82000284608B070BD07A8E268616905F04BF9C9
:10B83000F6E7F0B591B0054600200027FF430090E1
:10B84000019014463E4602910AA8FFF7A0FC0AA800
:10B850006968FFF785FC286A002842D02078012813
:10B8600001D0022803D12846FFF723FDA080E1681C
:10B87000A06806910590019A009904920391A1880D
:10B8800060780191009023780022A968286904F06B
:10B890000EFF011E25DD0AAA2846FFF714FD06004B
:10B8A0001FD12078012802D0022808D019E00AAA66
:10B8B00004212846FFF7C5FE042807D010E00AAA95
:10B8C00007212846FFF7BDFE072809D1E868009048
:10B8D0000CAA0DA90EA86B6904F02EFD012800D05A
:10B8E0003E46304611B0F0BD7CB504460025816867
:10B8F000ED43006904F0CFFC06466846FFF747FCBD
:10B9000068466168FFF72CFC002E05DD6A4631466B
:10B910002046FFF7D8FC05460020206228467CBD63
:10B9200070B5054601F056FA0446293401F052FA82
:10B930002B000AF0D1F906100406090C0E100120A4
:10B9400003E0022060700EE00320607006E0042037
:10B95000FBE70520F9E76078022804D000210220E7
:10B9600004F02BF970BD0121F9E700290FD0002365
:10B97000F74A00280CD0012813D002281AD0032837
:10B9800005D1106B401C1ED0D06B4018D06370479F
:10B99000106B401C03D0106B40181063704713638A
:10B9A0007047106B401C03D0506B401850637047B9
:10B9B00053637047106B401C03D0906B401890632A
:10B9C000704793637047D3637047FEB50C460746D4
:10B9D00001F000FA002506464E36009501950295C5
:10B9E0000B2C00D30A2422463946684607F038FD5E
:10B9F000304607F0B7FCA04207D1224669463046E0
:10BA000007F05CFC002800D101252846FEBDF1B5F9
:10BA100084B001F0DFF92930039001F0DBF907462B
:10BA2000453701F0D7F94E3002907879022804D1D9
:10BA3000002003F015FB002871D104988104C5484B
:10BA40000818406A002586B20120C002C04C864218
:10BA500001D9064601E0002E3CD0BF480818FCF78B
:10BA60002BF8172829D01C2827D022282BD1B848FA
:10BA700032462830034600901833B8490498FCF742
:10BA8000B0FBB349E08440310422081D07F016FCE6
:10BA9000002818D0AE49086C4864387A012812D1C1
:10BAA00008464030228DC178019200918378427817
:10BAB0000178ABA007F0B4F805E03246A749049836
:10BAC000FCF77AFAE084E58225832573E18C022075
:10BAD000FFF74BFF03984078012804D0022809D1D2
:10BAE0006078002806D10298007D012802D1A07A52
:10BAF000002806D0E08C002811D0F879012813D056
:10BB000016E031469548FFF760FF012809D0A5727D
:10BB1000E584A07A002802D10498FCF77BF905B0EF
:10BB2000F0BD0120A072F3E704F0A2F80028F6D0DF
:10BB300038788A4E012804D07879012814D000275B
:10BB40002CE0002003F05CFA002705E0F15D002006
:10BB500003F08FF97F1CBFB2E08C8742F6D3002040
:10BB600003F066FAE18C0EE0607B0128D7D1002754
:10BB700005E0F15D002003F07CF97F1CBFB2E08C92
:10BB80008742F6D30DE00320FFF7EFFEE584C6E71A
:10BB9000F15D002003F06DF97F1CBFB2E08C87429D
:10BBA000F6D381B2EFE7F8B501F014F9054676480F
:10BBB00029350188754800880A1875480088101AC8
:10BBC00007F055FD624C8EB2A08C01273018FF02A1
:10BBD000B84213D3687C00280DD0012E0BD1002071
:10BBE00003F079F9C1B26B48A28C8154687C884219
:10BBF00001D11046F8BDA08C381A86B2E87BA97B2B
:10BC00000002084305D1287C002802D1687C002866
:10BC100001D000272AE000255E4F08E0002003F055
:10BC20005AF9A18C7854491C6D1CA184ADB2B5425F
:10BC3000F4D3A08CF8BD002003F04DF9024655491D
:10BC4000A08C0A54401C80B2A0846A7C002A04D0D4
:10BC500009182039C97F8A4204D0297C002903D0E1
:10BC6000814201D180B2F8BD7F1CBFB2B742E2D39E
:10BC7000E87BA97B0002084315D0A58C002D12D0CB
:10BC8000207A00280FD040480188404800880A18D0
:10BC90003F480088101A07F0EAFC002901D1002073
:10BCA00020722846F8BD0020F8BDFEB5064601F01A
:10BCB00091F80546293501F08DF845300090FFF7E1
:10BCC000B3F8002868D1FFF76EFF0146019000200D
:10BCD000FFF74BFE019800271D4C002869D01E4835
:10BCE000B1040818FBF7E8FE14287DD0172861D0AE
:10BCF0001C285FD0222879D1A878002808D1E878BC
:10BD0000002805D12879002802D16879002806D0BA
:10BD1000687A297A00020843AB1C009011E00C48B5
:10BD200040300178002908D14178002905D1817877
:10BD3000002902D1C07800282FD0054B208D403338
:10BD4000009014493046019AFCF79DF906B22BE0A9
:10BD50006C0100200002014630000146F00B00207B
:10BD6000203E2055445020506565722049502F5088
:10BD70006F72743A2025642E25642E25642E256466
:10BD8000203A2025640D0A004A03002046030020C3
:10BD900048030020F003002029E00098007A0128E1
:10BDA00002D1FE4806F03CFF002E1FDDA08C801B58
:10BDB000A0841BE0A07A012818D1F9493046019AE5
:10BDC000FCF76AF800B2002802DDA18C081AA084F2
:10BDD00001200199FFF7C9FDE87D012806D1207BEC
:10BDE000002805D0277300E005E02783E782FEBD29
:10BDF00001202071F7E7A784FEBDF8B5074600F0E3
:10BE0000E9FF00F0E7FF0446293400F0E3FF0646AF
:10BE1000E448BD0445362818FBF74EFEE24AE34BE2
:10BE200000281BD0222818D1E148018810881A88E0
:10BE30000818801A07F01BFCDE4CA08C014302D0CE
:10BE40003846FFF732FFDC482818406AE18C80B2A0
:10BE5000084302D03846FFF7DAFDF8BD0020108015
:10BE60001880D44D0023A884E884E079A1790202E7
:10BE70000A4302213846FBF7A1FEB842EDD1052066
:10BE8000FFF74EFDE07BA17B0002084300D0A883B2
:10BE9000307A0128E1D1C9A006F0C2FEF8BD10B584
:10BEA000C44CA08A002809D0CB49884204D2401C47
:10BEB0000840A08202D00DE00020A08202F013FE14
:10BEC00007F0B8F9FBF770F9C44907F0D0FBC44894
:10BED0000818A08280B210BDB6480021C170C1719F
:10BEE000017141720172C1728172C1820184018348
:10BEF0004184704770B5054600F06CFF0446A949BF
:10BF0000A80429344018FBF7D7FD002807D0217872
:10BF1000032909D0172804D01C2802D004E02846A1
:10BF200070BD2846FBF776FF2846FBF71FFEF6E7B5
:10BF300010B500220621FCF78AFA10BDF0B585B0D5
:10BF400000F048FF0446293400F044FF054645351B
:10BF500000F040FF014600204E310646009003915C
:10BF6000A048FBF7A9FD6946087002909D48401E55
:10BF7000FBF7A2FD6946487001909A48801EFBF7C6
:10BF80009BFD6946887007469648C01EFBF794FDE6
:10BF90006946C8700399897D012908D18549897B43
:10BFA000012904D0287A012851D18FA011E00299EB
:10BFB000002906D10199002903D1002F01D10028C1
:10BFC00003D0A178002907D00FE0287A01283ED1BC
:10BFD0008FA006F025FE3AE0E278002A05D122790A
:10BFE000002A02D16279002A10D0029A8A4214D122
:10BFF000E378019A9A4210D1227997420DD1627961
:10C0000090420AD1287A012805D020E0287A012818
:10C010001DD18E48DDE78EA0DBE70298C02817D13E
:10C020000198A82814D10398407D002810D1C02978
:10C030000ED1E278A82A0BD123799F4208D0287A22
:10C04000012804D1607900908E4806F0E9FD0126B0
:10C05000304664E5F1B586B000F0BCFE00F0BAFEF3
:10C060000546293500F0B6FE4530009000F0B2FEDE
:10C070000646002468460294848106984E36810460
:10C08000484804910818FBF717FD4B4A049901270B
:10C0900089180591172858D020DC00287AD0132859
:10C0A0002BD0142818D1434C6078002814D1404874
:10C0B00001883D4800880A183C480088101A07F09B
:10C0C000D6FA002908D00698FFF714FF6770687B3E
:10C0D000297B00020843E08307B0F0BD1828DDD0BB
:10C0E0001C28F9D1334C0598406AE18C80B2084392
:10C0F000069850D0FFF78BFCF5E72E4E707801289C
:10C10000EAD1687B297B00020843F18B8842E3D89F
:10C11000F483FFF713FF01280DD0687A297A020211
:10C120000A43A91C0698FBF7F1FD707C401CC0B2C5
:10C1300070740A28D0D30698FFF7DCFE1A4874748E
:10C1400004801A4804807470C6E7164904981039B0
:10C150004018FBF7B1FCC0071ED00220FFF7E0FB40
:10C160001448C18A002905D1E97AAA7A0902114343
:10C1700000D0C7700F48008B002804D1E87D00284C
:10C1800001D00C480771307D002806D0094841785D
:10C19000012979E027E123E1B4E07AE01870010099
:10C1A000F003002030000146460300204803002031
:10C1B0004A0300206C01002000020146203E20536B
:10C1C00045473A5544505F4D4F44453A534F434BD2
:10C1D0004F50454E0D0A0000FFFF000010270000E1
:10C1E000B888000013600046203E205345473A437C
:10C1F0004F4E4E454354494F4E204641494C4544CD
:10C20000202D20444E53204661696C65640D0A0060
:10C21000203E205345473A434F4E4E454354494FE5
:10C220004E204641494C4544202D20496E76616C94
:10C23000696420495020616464726573733A205ABE
:10C2400065726F2049500D0A00000000AC700100BB
:10C25000203E205345473A434F4E4E454354494FA5
:10C260004E204641494C4544202D204475706C6950
:10C270006361746520495020616464726573730D55
:10C280000A0000006470010003D0827A114303D0D9
:10C2900004E0FD48877201E0477244840098007A08
:10C2A000012819D102AA04210698FCF738F903AA3B
:10C2B00005210698FCF733F9F348407800286846D2
:10C2C0008189C07A009001916846837A427A017A26
:10C2D00009D0EEA006F0A4FCEB484178002904D078
:10C2E000012907D007E0F4A0F4E7FE490C80FE49DD
:10C2F0000C8000E044704474FC490498401801210B
:10C30000FBF7DCFBFA480188F64800880A18F64873
:10C310000088101A07F0ABF9DB48808C014302D08B
:10C320000698FFF7C2FC0598406AD74980B2C98CCD
:10C33000084302D00698FFF76AFBD348C07801286B
:10C340000ED1E87AA97A00020843CF49C98A884207
:10C3500006D80698FFF7CEFDCB48047104834470DD
:10C36000E87D012827D1C8480179012923D1007B24
:10C37000002802D0012810D01DE0687E297E00022E
:10C380000843C149098B884215D8002813D0069864
:10C39000FFF7CEFDBC4804830773E87EA97E000248
:10C3A000B94D0843298B884205D8002803D0069848
:10C3B000FFF7BEFD2C83B44D6878002800D08BE6D3
:10C3C000307D0128FBD1A87A0028F8D1688CC949B2
:10C3D0008842F4D30698FFF78DFD6C726C847BE67F
:10C3E000FBF718FD78E60120FFF79AFAA64A507885
:10C3F000002812D020461446D084FFF750FD024694
:10C40000202301210698FBF7D9FB06998842D6D153
:10C410004036707B012825D02AE0FFF75DFD2046DD
:10C420009084D084E8791446A97902020A43202333
:10C4300001210698FBF7C2FB06998842BFD140361E
:10C44000707B012805D1E87BA97B0002084300D05E
:10C45000A0830698FBF71DFC0098007A0128AED156
:10C46000A5A013E0E87BA97B0002084300D0A083CD
:10C47000A079002805D1687B297B0002084300D001
:10C48000A7710098007A012899D1A5A006F0C8FBF1
:10C4900022E6F1B586B000F09DFC00F09BFC06465C
:10C4A000293600F097FC4530009000F093FC0746D9
:10C4B000002568460295858106984E3784048B488E
:10C4C00008302018FBF7F8FA9F49611804911728E3
:10C4D00012D002DC00287DD1B7E01828FCD01C283F
:10C4E00078D1694C0498406AE18C80B20843069880
:10C4F00071D0FFF78CFAF5E77C4808382018FBF775
:10C50000DBFAC0073AD00220FFF70AFA5E48C18A78
:10C51000002906D1F17AB27A0902114301D0012132
:10C52000C170397D002907D00121417245840098EE
:10C53000007A012803D018E001218172F7E702AAEE
:10C5400004210698FBF7EBFF03AA05210698FBF7E9
:10C55000E6FF68468189C07A009001916846837A37
:10C56000427A017A54A006F05BFB5E480121058007
:10C570005D4805805D482018FBF7A0FA5C480188FB
:10C58000584800880A1858480088101A07F06FF8B1
:10C590003D4CA08C014302D00698FFF786FB04981F
:10C5A000406AE18C80B2084302D00698FFF72FFA68
:10C5B000E07801280BD1F07AB17A00020843E18AD1
:10C5C000884204D80698FFF795FC25712583F07DF5
:10C5D000012801E035E035E024D12079012821D17E
:10C5E000207B002802D001280FD01BE0707E317E16
:10C5F00000020843218B884214D8002812D00698E4
:10C60000FFF796FC258301202073F07EB17E0002A7
:10C610000843218B884205D8002803D00698FFF7ED
:10C6200087FC2583387D01280BD1A07A002808D10A
:10C63000608C3049884204D30698FFF75BFC657232
:10C64000658449E5FBF7E6FB46E50120FFF768F95D
:10C65000FFF742FC0C4C2023A584E584F079B179E6
:10C6600002020A4301210698FBF7A8FA06998842BC
:10C67000E7D14037787B012805D1F07BB17B000200
:10C68000084300D0A08361E06C010020203E2053CD
:10C6900045473A434F4E4E454354454420544F205E
:10C6A0002D2025642E25642E25642E2564203A2015
:10C6B00025640D0A00000000203E205345473A4300
:10C6C0004F4E4E45435445442046524F4D202D2059
:10C6D00025642E25642E25642E2564203A202564A9
:10C6E0000D0A0000460300204803002028000146F0
:10C6F0004A03002088130000203E205345473A5447
:10C7000043505F4D495845445F4D4F44453A53456A
:10C71000525645525F534F434B4F50454E0D0A0002
:10C72000203E205345473A5443505F4D49584544B5
:10C730005F4D4F44453A434C49454E545F534F4338
:10C740004B4F50454E0D0A00000201460698FBF77C
:10C75000A0FA0098007A01288AD1FCA006F060FABD
:10C76000BAE4F1B584B000F035FB00F033FB0546C8
:10C77000293500F02FFB4530009000F02BFB4E30A8
:10C780000024019002946846848104988604F84845
:10C790003018FBF791F9F7497718172828D019DCDA
:10C7A00000287DD0132814D1687B2A7B0102F2482F
:10C7B0001143C28B91420CD8C483FFF7BFFB012801
:10C7C00007D0687A297A02020A43A91C0498FBF769
:10C7D0009DFA3EE41828E4D01C28FAD1E64C786A89
:10C7E000E18C80B2084304987CD0FFF710F9F6E79B
:10C7F000DF4810383018FBF75FF9C00744D002203B
:10C80000FFF78EF8DC48C18A002906D1E97AAA7AB6
:10C810000902114301D00121C170018B002904D10B
:10C82000E97D002901D001210171D34801218172E4
:10C830008079012802D1D0488471C4830098007A9D
:10C84000012815D102AA04210498FBF768FE03AA67
:10C8500005210498FBF763FE68468189C07A009041
:10C8600001916846837A427A017AC44806F0D8F981
:10C87000C34801210480C3480480BF48C473BC4836
:10C8800008383018FBF71AF9BF480188BC480088FF
:10C890000A18BC480088101A06F0E9FEB64E00E0FF
:10C8A0004AE0B08C014302D00498FFF7FEF9786AA1
:10C8B000F18C80B2084302D00498FFF7A8F8F07812
:10C8C00001280BD1E87AA97A00020843F18A88424C
:10C8D00004D80498FFF70EFB34713483E87D0128F7
:10C8E00001D076E725E030790128FAD1307B0028A5
:10C8F0000FD00128F5D1E87EA97E00020843318BD4
:10C900008842EED80028ECD00498FFF711FB34835E
:10C910005FE7687E297E00020843318B8842F7D8A2
:10C920000028F5D00498FFF703FB3483012030730F
:10C93000E1E7FBF76FFA4CE70120FEF7F1FFFFF7A5
:10C94000CBFA8D4EB484F484FFF7A9FA0246202373
:10C9500001210498FBF732F904998842D8D1019853
:10C960004030407B012805D1E87BA97B00020843C9
:10C9700000D0B083B079002806D1687B297B000203
:10C98000084301D00120B0710098007A0128BFD17E
:10C99000F07B0028BCD17DA006F042F90120F073A5
:10C9A00017E7F8B5044600F015FA0746293700F0F6
:10C9B00011FA06462046453600246F4D002807D060
:10C9C00001202870FEF7ACFF387802280DD00DE06A
:10C9D0002C700420FEF7A4FF307A002811D074A038
:10C9E00006F01EF90E2277A108E06C70307A00285C
:10C9F00007D078A006F014F90E227BA1002002F0E7
:10CA00004DFA5F48AC8404805E480480EC702C7161
:10CA1000EC716C71EC822C832C846C832C72F8BDCD
:10CA2000F1B500F0D7F90646293600F0D3F90546EE
:10CA3000453500F0CFF9504C0027217CA830002963
:10CA400000D02774007801282FD0207801282CD11D
:10CA5000A078012809D10098FFF74CFA0020FFF7D1
:10CA6000A0FFA770207801281FD13078002806D0B9
:10CA7000012808D002280AD003280FD10BE0009823
:10CA8000FFF76FFE0AE00098FFF703FD06E000984D
:10CA9000FFF7E0FA02E00098FFF7AFF968790128A4
:10CAA00001D0022801D102F090F9F8BD10B500F0D4
:10CAB00091F92930407810BDF8B507463248002476
:10CAC000008825462E4E00900FE02B484A492A3018
:10CAD000025D30880A54401C009906F0BEFD2648CD
